{
  "contractName": "Voting",
  "abi": [
    {
      "constant": true,
      "inputs": [
        {
          "name": "",
          "type": "uint256"
        }
      ],
      "name": "candidatorList",
      "outputs": [
        {
          "name": "name",
          "type": "string"
        },
        {
          "name": "votes",
          "type": "uint256"
        }
      ],
      "payable": false,
      "stateMutability": "view",
      "type": "function"
    },
    {
      "inputs": [],
      "payable": false,
      "stateMutability": "nonpayable",
      "type": "constructor"
    },
    {
      "anonymous": false,
      "inputs": [
        {
          "indexed": false,
          "name": "name",
          "type": "string"
        }
      ],
      "name": "AddCandidator",
      "type": "event"
    },
    {
      "anonymous": false,
      "inputs": [
        {
          "indexed": false,
          "name": "candidator",
          "type": "string"
        },
        {
          "indexed": false,
          "name": "votes",
          "type": "uint256"
        }
      ],
      "name": "UpVotes",
      "type": "event"
    },
    {
      "anonymous": false,
      "inputs": [
        {
          "indexed": false,
          "name": "live",
          "type": "bool"
        }
      ],
      "name": "FinishVote",
      "type": "event"
    },
    {
      "anonymous": false,
      "inputs": [
        {
          "indexed": false,
          "name": "owner",
          "type": "address"
        }
      ],
      "name": "StartVote",
      "type": "event"
    },
    {
      "anonymous": false,
      "inputs": [
        {
          "indexed": false,
          "name": "live",
          "type": "bool"
        }
      ],
      "name": "RestartVote",
      "type": "event"
    },
    {
      "constant": false,
      "inputs": [
        {
          "name": "_name",
          "type": "string"
        }
      ],
      "name": "addCandidator",
      "outputs": [],
      "payable": false,
      "stateMutability": "nonpayable",
      "type": "function"
    },
    {
      "constant": false,
      "inputs": [
        {
          "name": "_candidatorIndex",
          "type": "uint256"
        }
      ],
      "name": "Votes",
      "outputs": [],
      "payable": false,
      "stateMutability": "nonpayable",
      "type": "function"
    },
    {
      "constant": false,
      "inputs": [],
      "name": "finishVote",
      "outputs": [],
      "payable": false,
      "stateMutability": "nonpayable",
      "type": "function"
    },
    {
      "constant": false,
      "inputs": [],
      "name": "restartVote",
      "outputs": [],
      "payable": false,
      "stateMutability": "nonpayable",
      "type": "function"
    },
    {
      "constant": true,
      "inputs": [],
      "name": "getLengthCandidator",
      "outputs": [
        {
          "name": "",
          "type": "uint256"
        }
      ],
      "payable": false,
      "stateMutability": "view",
      "type": "function"
    },
    {
      "constant": true,
      "inputs": [
        {
          "name": "_index",
          "type": "uint256"
        }
      ],
      "name": "getCandidatorName",
      "outputs": [
        {
          "name": "",
          "type": "string"
        }
      ],
      "payable": false,
      "stateMutability": "view",
      "type": "function"
    }
  ],
  "bytecode": "0x608060405234801561001057600080fd5b50336001806101000a81548173ffffffffffffffffffffffffffffffffffffffff021916908373ffffffffffffffffffffffffffffffffffffffff16021790555060018060006101000a81548160ff0219169083151502179055507f3f5036a427474966327b08a2e16707c7b2f704c86204bd2f669e9580e0f51a526001809054906101000a900473ffffffffffffffffffffffffffffffffffffffff16604051808273ffffffffffffffffffffffffffffffffffffffff1673ffffffffffffffffffffffffffffffffffffffff16815260200191505060405180910390a1610af6806100fe6000396000f300608060405260043610610083576000357c0100000000000000000000000000000000000000000000000000000000900463ffffffff1680632aebcbb6146100885780634eba3eb41461009f578063abf6ccda146100ca578063ac2987ff14610170578063b126f7711461019d578063b5433923146101b4578063cea5051014610261575b600080fd5b34801561009457600080fd5b5061009d6102ca565b005b3480156100ab57600080fd5b506100b46103ae565b6040518082815260200191505060405180910390f35b3480156100d657600080fd5b506100f5600480360381019080803590602001909291905050506103d0565b6040518080602001828103825283818151815260200191508051906020019080838360005b8381101561013557808201518184015260208101905061011a565b50505050905090810190601f1680156101625780820380516001836020036101000a031916815260200191505b509250505060405180910390f35b34801561017c57600080fd5b5061019b600480360381019080803590602001909291905050506104bb565b005b3480156101a957600080fd5b506101b26106da565b005b3480156101c057600080fd5b506101df600480360381019080803590602001909291905050506107bd565b6040518080602001838152602001828103825284818151815260200191508051906020019080838360005b8381101561022557808201518184015260208101905061020a565b50505050905090810190601f1680156102525780820380516001836020036101000a031916815260200191505b50935050505060405180910390f35b34801561026d57600080fd5b506102c8600480360381019080803590602001908201803590602001908080601f0160208091040260200160405190810160405280939291908181526020018383808284378201915050505050509192919290505050610888565b005b6001809054906101000a900473ffffffffffffffffffffffffffffffffffffffff1673ffffffffffffffffffffffffffffffffffffffff163373ffffffffffffffffffffffffffffffffffffffff1614151561032557600080fd5b60011515600160009054906101000a900460ff16151514151561034757600080fd5b6000600160006101000a81548160ff0219169083151502179055507f52a1f86df561bcdc915e07aafb957e1253d4464fc7fae3d6700815e71f063ffc600160009054906101000a900460ff16604051808215151515815260200191505060405180910390a1565b60006001600080549050101515156103c557600080fd5b600080549050905090565b60606001600080549050101515156103e757600080fd5b81600080549050101515156103fb57600080fd5b60008281548110151561040a57fe5b90600052602060002090600202016000018054600181600116156101000203166002900480601f0160208091040260200160405190810160405280929190818152602001828054600181600116156101000203166002900480156104af5780601f10610484576101008083540402835291602001916104af565b820191906000526020600020905b81548152906001019060200180831161049257829003601f168201915b50505050509050919050565b60011515600160009054906101000a900460ff1615151415156104dd57600080fd5b60001515600260003373ffffffffffffffffffffffffffffffffffffffff1673ffffffffffffffffffffffffffffffffffffffff16815260200190815260200160002060009054906101000a900460ff16151514151561053c57600080fd5b6000805490508110151561054f57600080fd5b60008181548110151561055e57fe5b9060005260206000209060020201600101600081548092919060010191905055506001600260003373ffffffffffffffffffffffffffffffffffffffff1673ffffffffffffffffffffffffffffffffffffffff16815260200190815260200160002060006101000a81548160ff0219169083151502179055507ff5b89a38e51d659395eef5060e285e31a5d0d2a0e28178cc46b0388cc097037460008281548110151561060757fe5b906000526020600020906002020160000160008381548110151561062757fe5b90600052602060002090600202016001015460405180806020018381526020018281038252848181546001816001161561010002031660029004815260200191508054600181600116156101000203166002900480156106c85780601f1061069d576101008083540402835291602001916106c8565b820191906000526020600020905b8154815290600101906020018083116106ab57829003601f168201915b5050935050505060405180910390a150565b6001809054906101000a900473ffffffffffffffffffffffffffffffffffffffff1673ffffffffffffffffffffffffffffffffffffffff163373ffffffffffffffffffffffffffffffffffffffff1614151561073557600080fd5b60001515600160009054906101000a900460ff16151514151561075757600080fd5b60018060006101000a81548160ff0219169083151502179055507f72eaeffd4d2c770dfc5cf561d034f40f5975a17fbaf900e308dcfb3ef4540a4b600160009054906101000a900460ff16604051808215151515815260200191505060405180910390a1565b6000818154811015156107cc57fe5b9060005260206000209060020201600091509050806000018054600181600116156101000203166002900480601f0160208091040260200160405190810160405280929190818152602001828054600181600116156101000203166002900480156108785780601f1061084d57610100808354040283529160200191610878565b820191906000526020600020905b81548152906001019060200180831161085b57829003601f168201915b5050505050908060010154905082565b6001809054906101000a900473ffffffffffffffffffffffffffffffffffffffff1673ffffffffffffffffffffffffffffffffffffffff163373ffffffffffffffffffffffffffffffffffffffff161415156108e357600080fd5b60011515600160009054906101000a900460ff16151514151561090557600080fd5b600560008054905010151561091957600080fd5b600060408051908101604052808381526020016000815250908060018154018082558091505090600182039060005260206000209060020201600090919290919091506000820151816000019080519060200190610978929190610a25565b50602082015181600101555050507ffe205e680ae4a254a0102de327d3c2b63168ae75f42f046f1fd775c3c866871b816040518080602001828103825283818151815260200191508051906020019080838360005b838110156109e85780820151818401526020810190506109cd565b50505050905090810190601f168015610a155780820380516001836020036101000a031916815260200191505b509250505060405180910390a150565b828054600181600116156101000203166002900490600052602060002090601f016020900481019282601f10610a6657805160ff1916838001178555610a94565b82800160010185558215610a94579182015b82811115610a93578251825591602001919060010190610a78565b5b509050610aa19190610aa5565b5090565b610ac791905b80821115610ac3576000816000905550600101610aab565b5090565b905600a165627a7a72305820cb099c18690dc4b4de9dd5a3f352552d84eb56b65a9c219db76e7dc24fef2f630029",
  "source": "pragma solidity ^0.4.24;\r\n\r\n// < 설계 >\r\n// 1. 후보자\r\n// 2. 후보자 선정\r\n// 3. 투표\r\n// 4. 투표 끝내기\r\n\r\ncontract Voting {\r\n\t// 구조체\r\n\tstruct candidator {\r\n\t\tstring name;\r\n\t\tuint votes; // 양수만 가능(uint)\r\n\t}\r\n\t\r\n\t// 변수\r\n\tcandidator[] public candidatorList; // 구 조체 배열\r\n\tbool live;  // 투표 진행 여부\r\n\taddress owner;  // 투표 개설자\r\n\t\r\n\t// 매핑\r\n\tmapping(address => bool) Voted;  // 투표한 사람에 대한 매핑\r\n\t\r\n\t// 확장자 (권한자)\r\n\tmodifier onlyOwner {\r\n\t\trequire(msg.sender == owner);\r\n\t\t_;  // 위 조건이 만족하면 아래 코드들을 실행\r\n\t}\r\n\t\r\n\t// 이벤트\r\n\tevent AddCandidator(string name);  // 후보자 이름을 받아 누가 추가되었는지 확인\r\n\tevent UpVotes(string candidator, uint votes); // 어떤 후보자가 몇표 받았는지 확인\r\n\tevent FinishVote(bool live);  // 투표가 끝남을 확인\r\n\tevent StartVote(address owner); // 투표가 시작을 확인\r\n\tevent RestartVote(bool live); // 재투표 시작 확인\r\n\t\r\n\t// 생성자(최초 컨트랙트 발생시 동작)\r\n\tconstructor() public {\r\n\t\towner = msg.sender;\r\n\t\tlive = true;\r\n\t\t\r\n\t\temit StartVote(owner);\r\n\t}\r\n\t\r\n\t// 후보자 추가 (언더바는 매개변수 관례)\r\n\tfunction addCandidator(string _name) public onlyOwner { \r\n\t\r\n\t\t// require 조건에 충족해야만 계속 실행 -> 가스를 절약 할 수 있음\r\n\t\trequire(live == true);\r\n\t\trequire(candidatorList.length < 5);  // 후보자 수가 5명이보다 적을 때 추가 가능\r\n\t\t\r\n\t\tcandidatorList.push(candidator(_name, 0));  // 후보자 리스트에 후보자 구조체 추가\r\n\t\t\r\n\t\t// 이벤트로 외부에 알리기\r\n\t\temit AddCandidator(_name);\r\n\t}\r\n\t\r\n\t// 후보자 투표\r\n\tfunction Votes(uint _candidatorIndex) public {\r\n\t\trequire(live == true);\r\n\t\trequire(Voted[msg.sender] == false);  // 투표자(msg.sender)가 투표를 하지 않은 상태이어야 함\r\n\t\trequire(_candidatorIndex < candidatorList.length);  // 존재하지 않는 후보자의 인덱스를 입력하는 경우 제거\r\n\t\t\r\n\t\tcandidatorList[_candidatorIndex].votes ++;  // 투표수 증가\r\n\t\t\r\n\t\tVoted[msg.sender] = true;  // 현재 투표자(msg.sender)가 투표를 했으므로 해당 값을 true\r\n\t\t\r\n\t\temit UpVotes(candidatorList[_candidatorIndex].name, candidatorList[_candidatorIndex].votes);\r\n\t}\r\n\t\r\n\t// 투표 종료 (투표 종료는 해당 컨트랙트를 만든 사람만 할 수 있도록 하기)\r\n\tfunction finishVote() public onlyOwner {\r\n\t\trequire(live == true);  // 투표가 진행 되어야지만 종료 가능\r\n\t\tlive = false;\r\n\t\t\r\n\t\temit FinishVote(live);\r\n\t}\r\n\r\n\t// 재투표 시작\r\n\tfunction restartVote() public onlyOwner {\r\n\t\trequire(live == false);\r\n\t\tlive = true;\r\n\r\n\t\temit RestartVote(live);\r\n\t}\r\n\r\n\t// 후보자 인원 확인\r\n\tfunction getLengthCandidator() public constant returns(uint) {\r\n\t\trequire(candidatorList.length >= 1);\r\n\t\treturn candidatorList.length;\r\n\t}\r\n\r\n\t// 후보자 이름 확인\r\n\tfunction getCandidatorName(uint _index) public constant returns(string) {\r\n\t\trequire(candidatorList.length >= 1);\r\n\t\trequire(candidatorList.length >= _index);\r\n\t\treturn candidatorList[_index].name;\r\n\t}\r\n}",
  "sourcePath": "C:\\Users\\User\\Desktop\\dApp_study\\practice_solidity\\contracts\\Voting.sol",
  "compiler": {
    "name": "solc",
    "version": "0.4.25+commit.59dbf8f1.Emscripten.clang"
  },
  "schemaVersion": "2.0.2",
  "updatedAt": "2021-06-20T05:01:17.062Z"
}