{
  "contractName": "Voting",
  "abi": [
    {
      "constant": true,
      "inputs": [
        {
          "name": "",
          "type": "uint256"
        }
      ],
      "name": "candidatorList",
      "outputs": [
        {
          "name": "name",
          "type": "string"
        },
        {
          "name": "votes",
          "type": "uint256"
        }
      ],
      "payable": false,
      "stateMutability": "view",
      "type": "function"
    },
    {
      "inputs": [],
      "payable": false,
      "stateMutability": "nonpayable",
      "type": "constructor"
    },
    {
      "anonymous": false,
      "inputs": [
        {
          "indexed": false,
          "name": "name",
          "type": "string"
        }
      ],
      "name": "AddCandidator",
      "type": "event"
    },
    {
      "anonymous": false,
      "inputs": [
        {
          "indexed": false,
          "name": "candidator",
          "type": "string"
        },
        {
          "indexed": false,
          "name": "votes",
          "type": "uint256"
        }
      ],
      "name": "UpVotes",
      "type": "event"
    },
    {
      "anonymous": false,
      "inputs": [
        {
          "indexed": false,
          "name": "live",
          "type": "bool"
        }
      ],
      "name": "FinishVote",
      "type": "event"
    },
    {
      "anonymous": false,
      "inputs": [
        {
          "indexed": false,
          "name": "owner",
          "type": "address"
        }
      ],
      "name": "StartVote",
      "type": "event"
    },
    {
      "constant": false,
      "inputs": [
        {
          "name": "_name",
          "type": "string"
        }
      ],
      "name": "addCandidator",
      "outputs": [],
      "payable": false,
      "stateMutability": "nonpayable",
      "type": "function"
    },
    {
      "constant": false,
      "inputs": [
        {
          "name": "_candidatorIndex",
          "type": "uint256"
        }
      ],
      "name": "Votes",
      "outputs": [],
      "payable": false,
      "stateMutability": "nonpayable",
      "type": "function"
    },
    {
      "constant": false,
      "inputs": [],
      "name": "finishVote",
      "outputs": [],
      "payable": false,
      "stateMutability": "nonpayable",
      "type": "function"
    }
  ],
  "bytecode": "0x608060405234801561001057600080fd5b50336001806101000a81548173ffffffffffffffffffffffffffffffffffffffff021916908373ffffffffffffffffffffffffffffffffffffffff16021790555060018060006101000a81548160ff0219169083151502179055507f3f5036a427474966327b08a2e16707c7b2f704c86204bd2f669e9580e0f51a526001809054906101000a900473ffffffffffffffffffffffffffffffffffffffff16604051808273ffffffffffffffffffffffffffffffffffffffff1673ffffffffffffffffffffffffffffffffffffffff16815260200191505060405180910390a16107fd806100fe6000396000f300608060405260043610610062576000357c0100000000000000000000000000000000000000000000000000000000900463ffffffff1680632aebcbb614610067578063ac2987ff1461007e578063b5433923146100ab578063cea5051014610158575b600080fd5b34801561007357600080fd5b5061007c6101c1565b005b34801561008a57600080fd5b506100a9600480360381019080803590602001909291905050506102a5565b005b3480156100b757600080fd5b506100d6600480360381019080803590602001909291905050506104c4565b6040518080602001838152602001828103825284818151815260200191508051906020019080838360005b8381101561011c578082015181840152602081019050610101565b50505050905090810190601f1680156101495780820380516001836020036101000a031916815260200191505b50935050505060405180910390f35b34801561016457600080fd5b506101bf600480360381019080803590602001908201803590602001908080601f016020809104026020016040519081016040528093929190818152602001838380828437820191505050505050919291929050505061058f565b005b6001809054906101000a900473ffffffffffffffffffffffffffffffffffffffff1673ffffffffffffffffffffffffffffffffffffffff163373ffffffffffffffffffffffffffffffffffffffff1614151561021c57600080fd5b60011515600160009054906101000a900460ff16151514151561023e57600080fd5b6000600160006101000a81548160ff0219169083151502179055507f52a1f86df561bcdc915e07aafb957e1253d4464fc7fae3d6700815e71f063ffc600160009054906101000a900460ff16604051808215151515815260200191505060405180910390a1565b60011515600160009054906101000a900460ff1615151415156102c757600080fd5b60001515600260003373ffffffffffffffffffffffffffffffffffffffff1673ffffffffffffffffffffffffffffffffffffffff16815260200190815260200160002060009054906101000a900460ff16151514151561032657600080fd5b6000805490508110151561033957600080fd5b60008181548110151561034857fe5b9060005260206000209060020201600101600081548092919060010191905055506001600260003373ffffffffffffffffffffffffffffffffffffffff1673ffffffffffffffffffffffffffffffffffffffff16815260200190815260200160002060006101000a81548160ff0219169083151502179055507ff5b89a38e51d659395eef5060e285e31a5d0d2a0e28178cc46b0388cc09703746000828154811015156103f157fe5b906000526020600020906002020160000160008381548110151561041157fe5b90600052602060002090600202016001015460405180806020018381526020018281038252848181546001816001161561010002031660029004815260200191508054600181600116156101000203166002900480156104b25780601f10610487576101008083540402835291602001916104b2565b820191906000526020600020905b81548152906001019060200180831161049557829003601f168201915b5050935050505060405180910390a150565b6000818154811015156104d357fe5b9060005260206000209060020201600091509050806000018054600181600116156101000203166002900480601f01602080910402602001604051908101604052809291908181526020018280546001816001161561010002031660029004801561057f5780601f106105545761010080835404028352916020019161057f565b820191906000526020600020905b81548152906001019060200180831161056257829003601f168201915b5050505050908060010154905082565b6001809054906101000a900473ffffffffffffffffffffffffffffffffffffffff1673ffffffffffffffffffffffffffffffffffffffff163373ffffffffffffffffffffffffffffffffffffffff161415156105ea57600080fd5b60011515600160009054906101000a900460ff16151514151561060c57600080fd5b600560008054905010151561062057600080fd5b60006040805190810160405280838152602001600081525090806001815401808255809150509060018203906000526020600020906002020160009091929091909150600082015181600001908051906020019061067f92919061072c565b50602082015181600101555050507ffe205e680ae4a254a0102de327d3c2b63168ae75f42f046f1fd775c3c866871b816040518080602001828103825283818151815260200191508051906020019080838360005b838110156106ef5780820151818401526020810190506106d4565b50505050905090810190601f16801561071c5780820380516001836020036101000a031916815260200191505b509250505060405180910390a150565b828054600181600116156101000203166002900490600052602060002090601f016020900481019282601f1061076d57805160ff191683800117855561079b565b8280016001018555821561079b579182015b8281111561079a57825182559160200191906001019061077f565b5b5090506107a891906107ac565b5090565b6107ce91905b808211156107ca5760008160009055506001016107b2565b5090565b905600a165627a7a72305820feafa1eedf7149b8407551fa2c4162737589235ff046509fb51de79cbac5a3390029",
  "source": "pragma solidity ^0.4.24;\r\n\r\n// < 설계 >\r\n// 1. 후보자\r\n// 2. 후보자 선정\r\n// 3. 투표\r\n// 4. 투표 끝내기\r\n\r\ncontract Voting {\r\n\t// 구조체\r\n\tstruct candidator {\r\n\t\tstring name;\r\n\t\tuint votes; // 양수만 가능(uint)\r\n\t}\r\n\t\r\n\t// 변수\r\n\tcandidator[] public candidatorList; // 구 조체 배열\r\n\tbool live;  // 투표 진행 여부\r\n\taddress owner;  // 투표 개설자\r\n\t\r\n\t// 매핑\r\n\tmapping(address => bool) Voted;  // 투표한 사람에 대한 매핑\r\n\t\r\n\t// 확장자 (권한자)\r\n\tmodifier onlyOwner {\r\n\t\trequire(msg.sender == owner);\r\n\t\t_;  // 위 조건이 만족하면 아래 코드들을 실행\r\n\t}\r\n\t\r\n\t// 이벤트\r\n\tevent AddCandidator(string name);  // 후보자 이름을 받아 누가 추가되었는지 확인\r\n\tevent UpVotes(string candidator, uint votes); // 어떤 후보자가 몇표 받았는지 확인\r\n\tevent FinishVote(bool live);  // 투표가 끝남을 확인\r\n\tevent StartVote(address owner); // 투표가 시작을 확인\r\n\t\r\n\t// 생성자(최초 컨트랙트 발생시 동작)\r\n\tconstructor() public {\r\n\t\towner = msg.sender;\r\n\t\tlive = true;\r\n\t\t\r\n\t\temit StartVote(owner);\r\n\t}\r\n\t\r\n\t// 후보자 추가 (언더바는 매개변수 관례)\r\n\tfunction addCandidator(string _name) public onlyOwner { \r\n\t\r\n\t\t// require 조건에 충족해야만 계속 실행 -> 가스를 절약 할 수 있음\r\n\t\trequire(live == true);\r\n\t\trequire(candidatorList.length < 5);  // 후보자 수가 5명이보다 적을 때 추가 가능\r\n\t\t\r\n\t\tcandidatorList.push(candidator(_name, 0));  // 후보자 리스트에 후보자 구조체 추가\r\n\t\t\r\n\t\t// 이벤트로 외부에 알리기\r\n\t\temit AddCandidator(_name);\r\n\t}\r\n\t\r\n\t// 후보자 투표\r\n\tfunction Votes(uint _candidatorIndex) public {\r\n\t\trequire(live == true);\r\n\t\trequire(Voted[msg.sender] == false);  // 투표자(msg.sender)가 투표를 하지 않은 상태이어야 함\r\n\t\trequire(_candidatorIndex < candidatorList.length);  // 존재하지 않는 후보자의 인덱스를 입력하는 경우 제거\r\n\t\t\r\n\t\tcandidatorList[_candidatorIndex].votes ++;  // 투표수 증가\r\n\t\t\r\n\t\tVoted[msg.sender] = true;  // 현재 투표자(msg.sender)가 투표를 했으므로 해당 값을 true\r\n\t\t\r\n\t\temit UpVotes(candidatorList[_candidatorIndex].name, candidatorList[_candidatorIndex].votes);\r\n\t}\r\n\t\r\n\t// 투표 종료 (투표 종료는 해당 컨트랙트를 만든 사람만 할 수 있도록 하기)\r\n\tfunction finishVote() public onlyOwner {\r\n\t\trequire(live == true);  // 투표가 진행 되어야지만 종료 가능\r\n\t\tlive = false;\r\n\t\t\r\n\t\temit FinishVote(live);\r\n\t}\r\n}",
  "sourcePath": "C:\\Users\\User\\Desktop\\dApp_study\\practice_solidity\\contracts\\Voting.sol",
  "compiler": {
    "name": "solc",
    "version": "0.4.25+commit.59dbf8f1.Emscripten.clang"
  },
  "schemaVersion": "2.0.2",
  "updatedAt": "2021-06-20T04:28:54.378Z"
}