{
  "contractName": "CoinToFlip",
  "abi": [
    {
      "constant": true,
      "inputs": [],
      "name": "owner",
      "outputs": [
        {
          "name": "",
          "type": "address"
        }
      ],
      "payable": false,
      "stateMutability": "view",
      "type": "function"
    },
    {
      "constant": true,
      "inputs": [],
      "name": "lockedInBets",
      "outputs": [
        {
          "name": "",
          "type": "uint256"
        }
      ],
      "payable": false,
      "stateMutability": "view",
      "type": "function"
    },
    {
      "inputs": [],
      "payable": false,
      "stateMutability": "nonpayable",
      "type": "constructor"
    },
    {
      "payable": true,
      "stateMutability": "payable",
      "type": "fallback"
    },
    {
      "anonymous": false,
      "inputs": [
        {
          "indexed": false,
          "name": "reveal",
          "type": "uint256"
        }
      ],
      "name": "Reveal",
      "type": "event"
    },
    {
      "anonymous": false,
      "inputs": [
        {
          "indexed": true,
          "name": "beneficiary",
          "type": "address"
        },
        {
          "indexed": false,
          "name": "amount",
          "type": "uint256"
        }
      ],
      "name": "Payment",
      "type": "event"
    },
    {
      "anonymous": false,
      "inputs": [
        {
          "indexed": true,
          "name": "beneficiary",
          "type": "address"
        },
        {
          "indexed": false,
          "name": "amount",
          "type": "uint256"
        }
      ],
      "name": "FailedPayment",
      "type": "event"
    },
    {
      "anonymous": false,
      "inputs": [
        {
          "indexed": false,
          "name": "balance",
          "type": "uint256"
        }
      ],
      "name": "CheckHouseFund",
      "type": "event"
    },
    {
      "constant": false,
      "inputs": [
        {
          "name": "beneficiary",
          "type": "address"
        },
        {
          "name": "withdrawAmount",
          "type": "uint256"
        }
      ],
      "name": "withdrawFunds",
      "outputs": [],
      "payable": false,
      "stateMutability": "nonpayable",
      "type": "function"
    },
    {
      "constant": false,
      "inputs": [],
      "name": "kill",
      "outputs": [],
      "payable": false,
      "stateMutability": "nonpayable",
      "type": "function"
    },
    {
      "constant": false,
      "inputs": [
        {
          "name": "betMask",
          "type": "uint8"
        }
      ],
      "name": "placeBet",
      "outputs": [],
      "payable": true,
      "stateMutability": "payable",
      "type": "function"
    },
    {
      "constant": false,
      "inputs": [
        {
          "name": "seed",
          "type": "uint8"
        }
      ],
      "name": "revealResult",
      "outputs": [],
      "payable": false,
      "stateMutability": "nonpayable",
      "type": "function"
    },
    {
      "constant": false,
      "inputs": [],
      "name": "refundBet",
      "outputs": [],
      "payable": false,
      "stateMutability": "nonpayable",
      "type": "function"
    },
    {
      "constant": true,
      "inputs": [],
      "name": "checkHouseFund",
      "outputs": [
        {
          "name": "",
          "type": "uint256"
        }
      ],
      "payable": false,
      "stateMutability": "view",
      "type": "function"
    }
  ],
  "bytecode": "0x608060405234801561001057600080fd5b50336000806101000a81548173ffffffffffffffffffffffffffffffffffffffff021916908373ffffffffffffffffffffffffffffffffffffffff16021790555061134d806100606000396000f30060806040526004361061008e576000357c0100000000000000000000000000000000000000000000000000000000900463ffffffff16806311ea8acb14610090578063172f8276146100a75780631e1871e9146100d257806341c0e1b51461010257806343046844146101195780638da5cb5b1461013c578063c107532914610193578063df88126f146101e0575b005b34801561009c57600080fd5b506100a561020b565b005b3480156100b357600080fd5b506100bc610459565b6040518082815260200191505060405180910390f35b3480156100de57600080fd5b50610100600480360381019080803560ff169060200190929190505050610567565b005b34801561010e57600080fd5b506101176108f1565b005b61013a600480360381019080803560ff169060200190929190505050610ab5565b005b34801561014857600080fd5b50610151610e32565b604051808273ffffffffffffffffffffffffffffffffffffffff1673ffffffffffffffffffffffffffffffffffffffff16815260200191505060405180910390f35b34801561019f57600080fd5b506101de600480360381019080803573ffffffffffffffffffffffffffffffffffffffff16906020019092919080359060200190929190505050610e57565b005b3480156101ec57600080fd5b506101f5611038565b6040518082815260200191505060405180910390f35b60008060008060008460020154431115156102b4576040517f08c379a00000000000000000000000000000000000000000000000000000000081526004018080602001828103825260328152602001807f726566756e6442657420696e207468652073616d6520626c6f636b206173207081526020017f6c6163654265742c206f72206265666f7265000000000000000000000000000081525060400191505060405180910390fd5b600260003373ffffffffffffffffffffffffffffffffffffffff1673ffffffffffffffffffffffffffffffffffffffff16815260200190815260200160002094508460000154935060008411151561039a576040517f08c379a00000000000000000000000000000000000000000000000000000000081526004018080602001828103825260228152602001807f4265742073686f756c6420626520696e20616e2027616374697665272073746181526020017f746500000000000000000000000000000000000000000000000000000000000081525060400191505060405180910390fd5b8460010160009054906101000a900460ff1692506103dc8560030160019054906101000a900473ffffffffffffffffffffffffffffffffffffffff168561103e565b3073ffffffffffffffffffffffffffffffffffffffff163191507f39c8576ad7908fb60d1e754a77ba1f79d45b7932bac74534a69e94e6fe10bbc6826040518082815260200191505060405180910390a1610437848461111e565b905080600160008282540392505081905550610452336111ff565b5050505050565b6000806000809054906101000a900473ffffffffffffffffffffffffffffffffffffffff1673ffffffffffffffffffffffffffffffffffffffff163373ffffffffffffffffffffffffffffffffffffffff16141515610546576040517f08c379a00000000000000000000000000000000000000000000000000000000081526004018080602001828103825260218152602001807f4f6e6c79206f776e65722063616e2063616c6c20746869732066756e6374696f81526020017f6e0000000000000000000000000000000000000000000000000000000000000081525060400191505060405180910390fd5b3073ffffffffffffffffffffffffffffffffffffffff163190508091505090565b600080600080600080600080600080600260003373ffffffffffffffffffffffffffffffffffffffff1673ffffffffffffffffffffffffffffffffffffffff1681526020019081526020016000209950896000015498508960010160009054906101000a900460ff169750896002015496508960030160019054906101000a900473ffffffffffffffffffffffffffffffffffffffff16955060008911151561069e576040517f08c379a00000000000000000000000000000000000000000000000000000000081526004018080602001828103825260228152602001807f4265742073686f756c6420626520696e20616e2027616374697665272073746181526020017f746500000000000000000000000000000000000000000000000000000000000081525060400191505060405180910390fd5b864311151561073b576040517f08c379a00000000000000000000000000000000000000000000000000000000081526004018080602001828103825260368152602001807f72657665616c526573756c7420696e207468652073616d6520626c6f636b206181526020017f7320706c6163654265742c206f72206265666f72652e0000000000000000000081525060400191505060405180910390fd5b8a60ff1643034087406040516020018083600019166000191681526020018260001916600019168152602001925050506040516020818303038152906040526040518082805190602001908083835b6020831015156107af578051825260208201915060208101905060208303925061078a565b6001836020036101000a03801982511681845116808217855250505050505090500191505060405180910390209450600285600190048115156107ee57fe5b0693506000925060009150610803898961111e565b915060008a60030160009054906101000a900460ff1660ff168560020a1614151561082c578192505b7f1747b48b6ade85d7dc97c0f523e0e780795930a468c01b18a51546791fdd3ac08460020a6040518082815260200191505060405180910390a160008311156108cb57610879868461103e565b3073ffffffffffffffffffffffffffffffffffffffff163190507f39c8576ad7908fb60d1e754a77ba1f79d45b7932bac74534a69e94e6fe10bbc6816040518082815260200191505060405180910390a15b816001600082825403925050819055506108e4336111ff565b5050505050505050505050565b6000809054906101000a900473ffffffffffffffffffffffffffffffffffffffff1673ffffffffffffffffffffffffffffffffffffffff163373ffffffffffffffffffffffffffffffffffffffff161415156109db576040517f08c379a00000000000000000000000000000000000000000000000000000000081526004018080602001828103825260218152602001807f4f6e6c79206f776e65722063616e2063616c6c20746869732066756e6374696f81526020017f6e0000000000000000000000000000000000000000000000000000000000000081525060400191505060405180910390fd5b6000600154141515610a7b576040517f08c379a00000000000000000000000000000000000000000000000000000000081526004018080602001828103825260328152602001807f416c6c20626574732073686f756c642062652070726f6365737365642062656681526020017f6f72652073656c662d64657374727563742e000000000000000000000000000081525060400191505060405180910390fd5b6000809054906101000a900473ffffffffffffffffffffffffffffffffffffffff1673ffffffffffffffffffffffffffffffffffffffff16ff5b600080600080349350662386f26fc100008410158015610add5750678ac7230489e800008411155b1515610b51576040517f08c379a00000000000000000000000000000000000000000000000000000000081526004018080602001828103825260178152602001807f416d6f756e74206973206f7574206f662072616e67652e00000000000000000081525060200191505060405180910390fd5b60008560ff16118015610b6857506101008560ff16105b1515610bdc576040517f08c379a00000000000000000000000000000000000000000000000000000000081526004018080602001828103825260148152602001807f4d61736b2073686f756c6420626520382062697400000000000000000000000081525060200191505060405180910390fd5b600260003373ffffffffffffffffffffffffffffffffffffffff1673ffffffffffffffffffffffffffffffffffffffff1681526020019081526020016000209250600073ffffffffffffffffffffffffffffffffffffffff168360030160019054906101000a900473ffffffffffffffffffffffffffffffffffffffff1673ffffffffffffffffffffffffffffffffffffffff16141515610ce5576040517f08c379a00000000000000000000000000000000000000000000000000000000081526004018080602001828103825260198152602001807f4265742073686f756c6420626520656d7074792073746174650000000000000081525060200191505060405180910390fd5b610cee856112ed565b9150838360000181905550818360010160006101000a81548160ff021916908360ff160217905550438360020181905550848360030160006101000a81548160ff021916908360ff160217905550338360030160016101000a81548173ffffffffffffffffffffffffffffffffffffffff021916908373ffffffffffffffffffffffffffffffffffffffff160217905550610d89848361111e565b9050806001600082825401925050819055503073ffffffffffffffffffffffffffffffffffffffff1631600154101515610e2b576040517f08c379a000000000000000000000000000000000000000000000000000000000815260040180806020018281038252601e8152602001807f43616e6e6f74206166666f72746420746f2070617920746865206265742e000081525060200191505060405180910390fd5b5050505050565b6000809054906101000a900473ffffffffffffffffffffffffffffffffffffffff1681565b60008060009054906101000a900473ffffffffffffffffffffffffffffffffffffffff1673ffffffffffffffffffffffffffffffffffffffff163373ffffffffffffffffffffffffffffffffffffffff16141515610f43576040517f08c379a00000000000000000000000000000000000000000000000000000000081526004018080602001828103825260218152602001807f4f6e6c79206f776e65722063616e2063616c6c20746869732066756e6374696f81526020017f6e0000000000000000000000000000000000000000000000000000000000000081525060400191505060405180910390fd5b3073ffffffffffffffffffffffffffffffffffffffff1631600154830111151515610fd6576040517f08c379a00000000000000000000000000000000000000000000000000000000081526004018080602001828103825260128152602001807f4c61726765207468616e2062616c616e6365000000000000000000000000000081525060200191505060405180910390fd5b610fe0838361103e565b813073ffffffffffffffffffffffffffffffffffffffff16310390507f39c8576ad7908fb60d1e754a77ba1f79d45b7932bac74534a69e94e6fe10bbc6816040518082815260200191505060405180910390a1505050565b60015481565b8173ffffffffffffffffffffffffffffffffffffffff166108fc829081150290604051600060405180830381858888f19350505050156110cb578173ffffffffffffffffffffffffffffffffffffffff167fd4f43975feb89f48dd30cabbb32011045be187d1e11c8ea9faa43efc35282519826040518082815260200191505060405180910390a261111a565b8173ffffffffffffffffffffffffffffffffffffffff167fac464fe4d3a86b9121261ac0a01dd981bfe0777c7c9d9c8f4473d31a9c0f9d2d826040518082815260200191505060405180910390a25b5050565b60008060008360ff166000108015611139575060028460ff16105b15156111ad576040517f08c379a000000000000000000000000000000000000000000000000000000000815260040180806020018281038252601b8152602001807f50726f626162696c697479206973206f7574206f662072616e6765000000000081525060200191505060405180910390fd5b6064600586028115156111bc57fe5b0491506611c37937e080008210156111d9576611c37937e0800091505b6001840360ff16600201858115156111ed57fe5b04905080828603019250505092915050565b6000600260008373ffffffffffffffffffffffffffffffffffffffff1673ffffffffffffffffffffffffffffffffffffffff1681526020019081526020016000209050600081600001541015611254576112e9565b6000816000018190555060008160010160006101000a81548160ff021916908360ff1602179055506000816002018190555060008160030160006101000a81548160ff021916908360ff16021790555060008160030160016101000a81548173ffffffffffffffffffffffffffffffffffffffff021916908373ffffffffffffffffffffffffffffffffffffffff1602179055505b5050565b6000805b60008360ff16111561131857600183168101905060018360ff169060020a900492506112f1565b809150509190505600a165627a7a723058206c0b89cce9999a64144d7053e6140928171a5c595e2ed02f4f16a6d56d5a284e0029",
  "source": "// < 설계 >\r\n// 1. 유저가 동전의 앞뒤를 선택하고 이더 베팅(베팅 취소 가능 -> 수수료 차감)\r\n// 2. 장부에 베팅 정보 기록\r\n// 3. 동전 던지기 실행(난수 사용)\r\n// 4. 베팅한 동전이 나오면 유저 주소로 수수료를 제외한 이더 송금\r\n// 5. 장부에 베팅 정보 리셋\r\n\r\npragma solidity ^0.4.24;\r\n\r\ncontract CoinToFlip {\r\n\tuint constant MAX_CASE = 2;                // 동전 케이스(앞, 뒤)\r\n\tuint constant MIN_BET = 0.01 ether;        // 최소 배팅 금액\r\n\tuint constant MAX_BET = 10 ether;          // 최대 배팅 금액\r\n\tuint constant HOUSE_FEE_PERCENT = 5;       // 배팅시 차감 수수료\r\n\tuint constant HOUSE_MIN_FEE = 0.005 ether; // 최소 배팅금액의 수수료\r\n\t\r\n\taddress public owner;       // 컨트랙트 관리 계정 주서\r\n\tuint public lockedInBets;  // 상금으로 나가야할 금액 잠금(해당 값이 0보다 크면 게임이 진행중)\r\n\t\r\n\tstruct Bet {\r\n\t\tuint amount;                  // 베팅 금액\r\n\t\tuint8 numOfBetBit;            // 플레이어가 선택한 면의 개수\r\n\t\tuint placeBlockNumber;        // 플레이어가 베팅한 거래정보가 담긴 블록번호\r\n\t\t// 0000 0010 = 앞면 = 2           \r\n\t\t// 0000 0001 = 뒷면 = 1           \r\n\t\t// 0000 0011 = 앞 + 뒷 (불가능)     \r\n\t\tuint8 mask;                   // 베팅한 동전 면\r\n\t\taddress gambler;               // 플레이어의 계정주소\r\n\t}\r\n\t\r\n\tmapping (address => Bet) bets;  // 베팅 정보를 담는 장부\r\n\t\r\n\tevent Reveal(uint reveal);                                     // 던진 동전의 결과 이벤트 (1 or 2)\r\n\tevent Payment(address indexed beneficiary, uint amount);        // 상금 전송 이벤트 \r\n\tevent FailedPayment(address indexed beneficiary, uint amount);  // 상금 전송 실패 이벤트\r\n\tevent CheckHouseFund(uint balance);\r\n\t\r\n\t// 생성자, owner를 컨트랙트 배포 주소로 저장\r\n\tconstructor() public {\r\n\t\towner = msg.sender;\r\n\t}\r\n\t\r\n\t// 제어자, owner만 해당 함수를 실행 할 수 있도록 해줌\r\n\tmodifier onlyOwner {\r\n\t\trequire(msg.sender == owner, \"Only owner can call this function\");\r\n\t\t_;\r\n\t}\r\n\t\r\n\t// 컨트랙트에서 이더를 인출하는 메서드, owner만 호출 가능\r\n\tfunction withdrawFunds(address beneficiary, uint withdrawAmount) external onlyOwner {\r\n\t\t// address(this).balance 는 컨트랙트가 가진 잔액\r\n\t\trequire(withdrawAmount + lockedInBets <= address(this).balance, \"Large than balance\"); \r\n\t\tsendFunds(beneficiary, withdrawAmount);\r\n\t\tuint last_balance = address(this).balance - withdrawAmount;\r\n\t\temit CheckHouseFund(last_balance);\r\n\t}\r\n\t\r\n\t// 이더 전송 메서드, 플레이어에게 상금 전송 또는 이더 인출 역할\r\n\tfunction sendFunds(address beneficiary, uint amount) private {\r\n\t\t// send 함수는 이더를 보내는 메서드로 전송이 성공하면 1, 실패하면 0을 리턴\r\n\t\tif (beneficiary.send(amount)) {\r\n\t\t\temit Payment(beneficiary, amount);\r\n\t\t} else {\r\n\t\t\temit FailedPayment(beneficiary, amount);\r\n\t\t}\r\n\t}\t\r\n\t\r\n\t\r\n\t// 컨트랙트 종료 메서드\r\n\tfunction kill() external onlyOwner {\r\n\t\t// lockedInBets가 0이면 진행중인 게임이 없다는 뜻\r\n\t\trequire(lockedInBets == 0, \"All bets should be processed before self-destruct.\");\r\n\t\tselfdestruct(owner);\r\n\t}\t\r\n\t\r\n\t// fallback 함수 : 이름없는 함수, 파라미터, 리턴 값을 가질 수 없음. 컨트랙트에 하나만 존재 가능\r\n\tfunction () public payable {}  // 이 컨트랙트 주소에 이더를 송금하면 해당 함수가 실행되면서 컨트랙트에 이더가 송금됨 (초기 운영 자금)\r\n\t\r\n\t// 프론트에서 베팅을 했을 때 베팅 정보를 장부에 기록하는 메서드, payable 이 선언되어 있기 때문에 메서드를 실행할 때 이더를 같이 받을 수 있음\r\n\tfunction placeBet(uint8 betMask) external payable {\r\n\t\tuint amount = msg.value;  // 메소드 호출자가 보낸 송금액\r\n\t\t\r\n\t\t// 사용자가 베팅한 금액 조건 확인\r\n\t\trequire(amount >= MIN_BET && amount <= MAX_BET, \"Amount is out of range.\");\r\n\t\t// 베팅한 동전 면의 값 조건 확인\r\n\t\trequire(betMask > 0 && betMask < 256, \"Mask should be 8 bit\");\r\n\t\t\r\n\t\t// storage는 함수 내부에 선언된 로컬 변수가 레퍼런스 타입의 상태변수를 참조할 때 사용하는 키워드, 상태변수를 가르키는 포인터\r\n\t\t// storage를 안써도 되지만 명시해주지 않으면 컴파일 시 경고 발생\r\n\t\tBet storage bet = bets[msg.sender];\r\n\t\t\r\n\t\t// 베팅 유저의 주소가 null인지 확인 (address(0) 는 주소 null을 뜻함)\r\n\t\trequire(bet.gambler == address(0), \"Bet should be empty state\");\r\n\t\t\r\n\t\t// 베팅한 동전 면 계산\r\n\t\tuint8 numOfBetBit = countBits(betMask);\r\n\t\t\r\n\t\t// bet 구조체에 값을 채워넣기\r\n\t\tbet.amount = amount;\r\n\t\tbet.numOfBetBit = numOfBetBit;\r\n\t\tbet.placeBlockNumber = block.number;\r\n\t\tbet.mask = betMask;\r\n\t\tbet.gambler = msg.sender;\r\n\t\t\r\n\t\t// 유저가 동전을 맞췄을 때 보상으로 가져갈 이더 계산\r\n\t\tuint possibleWinningAmount = getWinningAmount(amount, numOfBetBit);\r\n\t\t// 맞췄을 때 보상으로 가져갈 이더를 lockedInBets에 더해서 해당 이더들을 잠금\r\n\t\tlockedInBets += possibleWinningAmount;\r\n\t\t\r\n\t\t// 현재 컨트랙트에 있는 이더보다 lockedInBets 가 더 크면 상금을 모두 줄 수 없는 경우를 확인 \r\n\t\trequire(lockedInBets < address(this).balance, \"Cannot affortd to pay the bet.\");\r\n\t}\r\n\t\r\n\t// 베팅한 금액에 대한 상금을 계산하는 메서드, pure는 계정의 상태 정보를 읽거나 쓰지 않을 때 사용(쓰지 않으면 컴파일때 경고 발생)\r\n\tfunction getWinningAmount(uint amount, uint8 numOfBetBit) private pure returns (uint winningAmount) {\r\n\t\t// 베팅한 동전 면의 값이 1 또는 2인지 확인\r\n\t\trequire(0 < numOfBetBit && numOfBetBit < MAX_CASE, \"Probability is out of range\");\r\n\t\t\r\n\t\t// owner가 가져갈 수수료 계산\r\n\t\tuint houseFee = amount * HOUSE_FEE_PERCENT / 100;\r\n\t\t\r\n\t\t// 가져가는 수수료가 최소 수수료보다 작을 때는 지정해놓은 최소 수수료로 가져감\r\n\t\tif(houseFee < HOUSE_MIN_FEE) {\r\n\t\t\thouseFee = HOUSE_MIN_FEE;\r\n\t\t}\r\n\t\t\r\n\t\t// 베팅 보상 계산\r\n\t\t// 뒷면으로 맞춘 보상금이 더 큼\r\n\t\tuint reward = amount / (MAX_CASE + (numOfBetBit-1));\r\n\t\twinningAmount = (amount - houseFee) + reward;  // 최종 지급 상금\r\n\t}\r\n\t\r\n\t// 동전 던지기 메서드\r\n\tfunction revealResult(uint8 seed) external {\r\n\t\t// 유저의 베팅 정보 가져오기\r\n\t\tBet storage bet = bets[msg.sender];\r\n\t\tuint amount = bet.amount;\r\n\t\tuint8 numOfBetBit = bet.numOfBetBit;\r\n\t\tuint placeBlockNumber = bet.placeBlockNumber;\r\n\t\taddress gambler = bet.gambler;\r\n\t\t\r\n\t\t// 베팅 금액이 0보다 커야함\r\n\t\trequire(amount > 0, \"Bet should be in an 'active' state\");\t\r\n\t\t\r\n\t\t// 베팅은 동전 던지기보다 먼저 발생 되어있어야 함\r\n\t\t// block.number는 현재 블록 번호, placeBlockNumber는 유저의 베팅 정보가 담긴 블록 번호\r\n\t\t// 따라서 placeBlockNumber의 값이 더 작아야지 먼저 생성된 블록임\r\n\t\trequire(block.number > placeBlockNumber, \"revealResult in the same block as placeBet, or before.\");\r\n\t\t\r\n\t\t// 난수 생성\r\n\t\tbytes32 random = keccak256(abi.encodePacked(blockhash(block.number-seed), blockhash(placeBlockNumber)));\r\n\t\t\r\n\t\tuint reveal = uint(random) % MAX_CASE; // 동전 던지기 결과, 0(뒤) or 1(앞) \r\n\t\t\r\n\t\tuint winningAmount = 0;\r\n\t\tuint possibleWinningAmount = 0;\r\n\t\t// 보상금 계산\r\n\t\tpossibleWinningAmount = getWinningAmount(amount, numOfBetBit);\r\n\t\t\r\n\t\t// 동전 면 맞추기를 성공했을 때\r\n\t\tif((2 ** reveal) & bet.mask != 0) {\r\n\t\t\twinningAmount = possibleWinningAmount;\r\n\t\t}\r\n\t\t\r\n\t\t// 동전 결과에 대한 이벤트 발생\r\n\t\temit Reveal(2 ** reveal);\t\r\n\t\t\r\n\t\t// 정답을 맞춘 유저에게 최종 보상금 전송\r\n\t\tif(winningAmount > 0) {\r\n\t\t\tsendFunds(gambler, winningAmount);\r\n\t\t\tuint balance = address(this).balance;\r\n\t\t\temit CheckHouseFund(balance);\r\n\t\t}\r\n\t\t\r\n\t\t// 모든 보상금이 다 나갔으므로 잠겨있는 이더 빼주기\r\n\t\tlockedInBets -= possibleWinningAmount;\r\n\t\t// 해당 베팅 정보를 bets 테이블에서 제거\r\n\t\tclearBet(msg.sender);\r\n\t}\r\n\t\r\n\t// 해당 플레이어의 값을 모두 null로 초기화\r\n\tfunction clearBet(address player) private {\r\n\t\tBet storage bet = bets[player];\r\n\t\t\r\n\t\tif(bet.amount < 0) {\r\n\t\t\treturn;\r\n\t\t}\r\n\t\t\r\n\t\tbet.amount = 0;\r\n\t\tbet.numOfBetBit = 0;\r\n\t\tbet.placeBlockNumber = 0;\r\n\t\tbet.mask = 0;\r\n\t\tbet.gambler = address(0);\r\n\t}\r\n\t\r\n\t// 베팅 후 결과를 확인하지 않고 베팅 취소\r\n\tfunction refundBet() external {\r\n\t\trequire(block.number > bet.placeBlockNumber, \"refundBet in the same block as placeBet, or before\");\r\n\t\t\r\n\t\tBet storage bet = bets[msg.sender];\r\n\t\tuint amount = bet.amount;\r\n\t\t\r\n\t\trequire(amount > 0, \"Bet should be in an 'active' state\");\r\n\t\t\r\n\t\tuint8 numOfBetBit = bet.numOfBetBit;\r\n\t\t\r\n\t\tsendFunds(bet.gambler, amount);\r\n\t\tuint balance = address(this).balance;\r\n\t\temit CheckHouseFund(balance);\r\n\t\t\r\n\t\tuint possibleWinningAmount;\r\n\t\tpossibleWinningAmount = getWinningAmount(amount, numOfBetBit);\r\n\t\t\r\n\t\tlockedInBets -= possibleWinningAmount;\r\n\t\tclearBet(msg.sender);\r\n\t}\r\n\t\r\n\t// 컨트랙트 잔액을 조회하는 메서드\r\n\tfunction checkHouseFund() public view onlyOwner returns(uint) {\r\n\t\tuint balance = address(this).balance;\r\n\t\treturn balance;\r\n\t}\r\n\t\r\n\t// numOfBetBit 계산 메서드\r\n\tfunction countBits(uint8 _num) internal pure returns(uint8) {\r\n\t\tuint8 count;\r\n\t\twhile (_num > 0) {\r\n\t\t\tcount += _num & 1;\r\n\t\t\t_num >>= 1;\r\n\t\t}\r\n\t\treturn count;\r\n\t}\r\n}\r\n",
  "sourcePath": "C:\\Users\\User\\Desktop\\모델압축\\dApp_study\\react-dapp\\contracts\\CoinToFlip.sol",
  "compiler": {
    "name": "solc",
    "version": "0.4.25+commit.59dbf8f1.Emscripten.clang"
  },
  "schemaVersion": "2.0.2",
  "updatedAt": "2021-06-24T01:12:16.047Z"
}