{
  "contractName": "CoinToFlip",
  "abi": [
    {
      "constant": true,
      "inputs": [],
      "name": "owner",
      "outputs": [
        {
          "name": "",
          "type": "address"
        }
      ],
      "payable": false,
      "stateMutability": "view",
      "type": "function"
    },
    {
      "constant": true,
      "inputs": [],
      "name": "lockedInBets",
      "outputs": [
        {
          "name": "",
          "type": "uint256"
        }
      ],
      "payable": false,
      "stateMutability": "view",
      "type": "function"
    },
    {
      "inputs": [],
      "payable": false,
      "stateMutability": "nonpayable",
      "type": "constructor"
    },
    {
      "payable": true,
      "stateMutability": "payable",
      "type": "fallback"
    },
    {
      "anonymous": false,
      "inputs": [
        {
          "indexed": false,
          "name": "reveal",
          "type": "uint256"
        }
      ],
      "name": "Reveal",
      "type": "event"
    },
    {
      "anonymous": false,
      "inputs": [
        {
          "indexed": true,
          "name": "beneficiary",
          "type": "address"
        },
        {
          "indexed": false,
          "name": "amount",
          "type": "uint256"
        }
      ],
      "name": "Payment",
      "type": "event"
    },
    {
      "anonymous": false,
      "inputs": [
        {
          "indexed": true,
          "name": "beneficiary",
          "type": "address"
        },
        {
          "indexed": false,
          "name": "amount",
          "type": "uint256"
        }
      ],
      "name": "FailedPayment",
      "type": "event"
    },
    {
      "constant": false,
      "inputs": [
        {
          "name": "beneficiary",
          "type": "address"
        },
        {
          "name": "withdrawAmount",
          "type": "uint256"
        }
      ],
      "name": "withdrawFunds",
      "outputs": [],
      "payable": false,
      "stateMutability": "nonpayable",
      "type": "function"
    },
    {
      "constant": false,
      "inputs": [],
      "name": "kill",
      "outputs": [],
      "payable": false,
      "stateMutability": "nonpayable",
      "type": "function"
    },
    {
      "constant": false,
      "inputs": [
        {
          "name": "betMask",
          "type": "uint8"
        }
      ],
      "name": "placeBet",
      "outputs": [],
      "payable": true,
      "stateMutability": "payable",
      "type": "function"
    },
    {
      "constant": false,
      "inputs": [
        {
          "name": "seed",
          "type": "uint8"
        }
      ],
      "name": "revealResult",
      "outputs": [],
      "payable": false,
      "stateMutability": "nonpayable",
      "type": "function"
    },
    {
      "constant": false,
      "inputs": [],
      "name": "refundBet",
      "outputs": [],
      "payable": false,
      "stateMutability": "nonpayable",
      "type": "function"
    },
    {
      "constant": true,
      "inputs": [],
      "name": "checkHouseFund",
      "outputs": [
        {
          "name": "",
          "type": "uint256"
        }
      ],
      "payable": false,
      "stateMutability": "view",
      "type": "function"
    }
  ],
  "bytecode": "0x608060405234801561001057600080fd5b50336000806101000a81548173ffffffffffffffffffffffffffffffffffffffff021916908373ffffffffffffffffffffffffffffffffffffffff16021790555061124b806100606000396000f30060806040526004361061008e576000357c0100000000000000000000000000000000000000000000000000000000900463ffffffff16806311ea8acb14610090578063172f8276146100a75780631e1871e9146100d257806341c0e1b51461010257806343046844146101195780638da5cb5b1461013c578063c107532914610193578063df88126f146101e0575b005b34801561009c57600080fd5b506100a561020b565b005b3480156100b357600080fd5b506100bc610405565b6040518082815260200191505060405180910390f35b3480156100de57600080fd5b50610100600480360381019080803560ff16906020019092919050505061050e565b005b34801561010e57600080fd5b50610117610845565b005b61013a600480360381019080803560ff169060200190929190505050610a09565b005b34801561014857600080fd5b50610151610d86565b604051808273ffffffffffffffffffffffffffffffffffffffff1673ffffffffffffffffffffffffffffffffffffffff16815260200191505060405180910390f35b34801561019f57600080fd5b506101de600480360381019080803573ffffffffffffffffffffffffffffffffffffffff16906020019092919080359060200190929190505050610dab565b005b3480156101ec57600080fd5b506101f5610f36565b6040518082815260200191505060405180910390f35b6000806000808360020154431115156102b2576040517f08c379a00000000000000000000000000000000000000000000000000000000081526004018080602001828103825260328152602001807f726566756e6442657420696e207468652073616d6520626c6f636b206173207081526020017f6c6163654265742c206f72206265666f7265000000000000000000000000000081525060400191505060405180910390fd5b600260003373ffffffffffffffffffffffffffffffffffffffff1673ffffffffffffffffffffffffffffffffffffffff168152602001908152602001600020935083600001549250600083101515610398576040517f08c379a00000000000000000000000000000000000000000000000000000000081526004018080602001828103825260228152602001807f4265742073686f756c6420626520696e20616e2027616374697665272073746181526020017f746500000000000000000000000000000000000000000000000000000000000081525060400191505060405180910390fd5b8360010160009054906101000a900460ff1691506103da8460030160019054906101000a900473ffffffffffffffffffffffffffffffffffffffff1684610f3c565b6103e4838361101c565b9050806001600082825403925050819055506103ff336110fd565b50505050565b60008060009054906101000a900473ffffffffffffffffffffffffffffffffffffffff1673ffffffffffffffffffffffffffffffffffffffff163373ffffffffffffffffffffffffffffffffffffffff161415156104f1576040517f08c379a00000000000000000000000000000000000000000000000000000000081526004018080602001828103825260218152602001807f4f6e6c79206f776e65722063616e2063616c6c20746869732066756e6374696f81526020017f6e0000000000000000000000000000000000000000000000000000000000000081525060400191505060405180910390fd5b3073ffffffffffffffffffffffffffffffffffffffff1631905090565b6000806000806000806000806000600260003373ffffffffffffffffffffffffffffffffffffffff1673ffffffffffffffffffffffffffffffffffffffff1681526020019081526020016000209850886000015497508860010160009054906101000a900460ff169650886002015495508860030160019054906101000a900473ffffffffffffffffffffffffffffffffffffffff169450600088111515610644576040517f08c379a00000000000000000000000000000000000000000000000000000000081526004018080602001828103825260228152602001807f4265742073686f756c6420626520696e20616e2027616374697665272073746181526020017f746500000000000000000000000000000000000000000000000000000000000081525060400191505060405180910390fd5b85431115156106e1576040517f08c379a00000000000000000000000000000000000000000000000000000000081526004018080602001828103825260368152602001807f72657665616c526573756c7420696e207468652073616d6520626c6f636b206181526020017f7320706c6163654265742c206f72206265666f72652e0000000000000000000081525060400191505060405180910390fd5b8960ff1643034086406040516020018083600019166000191681526020018260001916600019168152602001925050506040516020818303038152906040526040518082805190602001908083835b6020831015156107555780518252602082019150602081019050602083039250610730565b6001836020036101000a038019825116818451168082178552505050505050905001915050604051809103902093506002846001900481151561079457fe5b06925060009150600090506107a9888861101c565b905060008960030160009054906101000a900460ff1660ff168460020a161415156107d2578091505b7f1747b48b6ade85d7dc97c0f523e0e780795930a468c01b18a51546791fdd3ac08360020a6040518082815260200191505060405180910390a160008211156108205761081f8583610f3c565b5b80600160008282540392505081905550610839336110fd565b50505050505050505050565b6000809054906101000a900473ffffffffffffffffffffffffffffffffffffffff1673ffffffffffffffffffffffffffffffffffffffff163373ffffffffffffffffffffffffffffffffffffffff1614151561092f576040517f08c379a00000000000000000000000000000000000000000000000000000000081526004018080602001828103825260218152602001807f4f6e6c79206f776e65722063616e2063616c6c20746869732066756e6374696f81526020017f6e0000000000000000000000000000000000000000000000000000000000000081525060400191505060405180910390fd5b60006001541415156109cf576040517f08c379a00000000000000000000000000000000000000000000000000000000081526004018080602001828103825260328152602001807f416c6c20626574732073686f756c642062652070726f6365737365642062656681526020017f6f72652073656c662d64657374727563742e000000000000000000000000000081525060400191505060405180910390fd5b6000809054906101000a900473ffffffffffffffffffffffffffffffffffffffff1673ffffffffffffffffffffffffffffffffffffffff16ff5b600080600080349350662386f26fc100008410158015610a315750678ac7230489e800008411155b1515610aa5576040517f08c379a00000000000000000000000000000000000000000000000000000000081526004018080602001828103825260178152602001807f416d6f756e74206973206f7574206f662072616e67652e00000000000000000081525060200191505060405180910390fd5b60008560ff16118015610abc57506101008560ff16105b1515610b30576040517f08c379a00000000000000000000000000000000000000000000000000000000081526004018080602001828103825260148152602001807f4d61736b2073686f756c6420626520382062697400000000000000000000000081525060200191505060405180910390fd5b600260003373ffffffffffffffffffffffffffffffffffffffff1673ffffffffffffffffffffffffffffffffffffffff1681526020019081526020016000209250600073ffffffffffffffffffffffffffffffffffffffff168360030160019054906101000a900473ffffffffffffffffffffffffffffffffffffffff1673ffffffffffffffffffffffffffffffffffffffff16141515610c39576040517f08c379a00000000000000000000000000000000000000000000000000000000081526004018080602001828103825260198152602001807f4265742073686f756c6420626520656d7074792073746174650000000000000081525060200191505060405180910390fd5b610c42856111eb565b9150838360000181905550818360010160006101000a81548160ff021916908360ff160217905550438360020181905550848360030160006101000a81548160ff021916908360ff160217905550338360030160016101000a81548173ffffffffffffffffffffffffffffffffffffffff021916908373ffffffffffffffffffffffffffffffffffffffff160217905550610cdd848361101c565b9050806001600082825401925050819055503073ffffffffffffffffffffffffffffffffffffffff1631600154101515610d7f576040517f08c379a000000000000000000000000000000000000000000000000000000000815260040180806020018281038252601e8152602001807f43616e6e6f74206166666f72746420746f2070617920746865206265742e000081525060200191505060405180910390fd5b5050505050565b6000809054906101000a900473ffffffffffffffffffffffffffffffffffffffff1681565b6000809054906101000a900473ffffffffffffffffffffffffffffffffffffffff1673ffffffffffffffffffffffffffffffffffffffff163373ffffffffffffffffffffffffffffffffffffffff16141515610e95576040517f08c379a00000000000000000000000000000000000000000000000000000000081526004018080602001828103825260218152602001807f4f6e6c79206f776e65722063616e2063616c6c20746869732066756e6374696f81526020017f6e0000000000000000000000000000000000000000000000000000000000000081525060400191505060405180910390fd5b3073ffffffffffffffffffffffffffffffffffffffff1631600154820111151515610f28576040517f08c379a00000000000000000000000000000000000000000000000000000000081526004018080602001828103825260128152602001807f4c61726765207468616e2062616c616e6365000000000000000000000000000081525060200191505060405180910390fd5b610f328282610f3c565b5050565b60015481565b8173ffffffffffffffffffffffffffffffffffffffff166108fc829081150290604051600060405180830381858888f1935050505015610fc9578173ffffffffffffffffffffffffffffffffffffffff167fd4f43975feb89f48dd30cabbb32011045be187d1e11c8ea9faa43efc35282519826040518082815260200191505060405180910390a2611018565b8173ffffffffffffffffffffffffffffffffffffffff167fac464fe4d3a86b9121261ac0a01dd981bfe0777c7c9d9c8f4473d31a9c0f9d2d826040518082815260200191505060405180910390a25b5050565b60008060008360ff166000108015611037575060028460ff16105b15156110ab576040517f08c379a000000000000000000000000000000000000000000000000000000000815260040180806020018281038252601b8152602001807f50726f626162696c697479206973206f7574206f662072616e6765000000000081525060200191505060405180910390fd5b6064600586028115156110ba57fe5b0491506611c37937e080008210156110d7576611c37937e0800091505b6001840360ff16600201858115156110eb57fe5b04905080828603019250505092915050565b6000600260008373ffffffffffffffffffffffffffffffffffffffff1673ffffffffffffffffffffffffffffffffffffffff1681526020019081526020016000209050600081600001541115611152576111e7565b6000816000018190555060008160010160006101000a81548160ff021916908360ff1602179055506000816002018190555060008160030160006101000a81548160ff021916908360ff16021790555060008160030160016101000a81548173ffffffffffffffffffffffffffffffffffffffff021916908373ffffffffffffffffffffffffffffffffffffffff1602179055505b5050565b6000805b60008360ff16111561121657600183168101905060018360ff169060020a900492506111ef565b809150509190505600a165627a7a72305820280adbe9b82cbbe22bdfcfbd94ffc5d16657a0a40155a2591af771740f0dc1d20029",
  "source": "// < 설계 >\n// 1. 유저가 동전의 앞뒤를 선택하고 이더 베팅(베팅 취소 가능 -> 수수료 차감)\n// 2. 장부에 베팅 정보 기록\n// 3. 동전 던지기 실행(난수 사용)\n// 4. 베팅한 동전이 나오면 유저 주소로 수수료를 제외한 이더 송금\n// 5. 장부에 베팅 정보 리셋\n\npragma solidity ^0.4.24;\n\ncontract CoinToFlip {\n\tuint constant MAX_CASE = 2;                // 동전 케이스(앞, 뒤)\n\tuint constant MIN_BET = 0.01 ether;        // 최소 배팅 금액\n\tuint constant MAX_BET = 10 ether;          // 최대 배팅 금액\n\tuint constant HOUSE_FEE_PERCENT = 5;       // 배팅시 차감 수수료\n\tuint constant HOUSE_MIN_FEE = 0.005 ether; // 최소 배팅금액의 수수료\n\t\n\taddress public owner;       // 컨트랙트 관리 계정 주서\n\tuint public lockedInBets;  // 상금으로 나가야할 금액 잠금(해당 값이 0보다 크면 게임이 진행중)\n\t\n\tstruct Bet {\n\t\tuint amount;                  // 베팅 금액\n\t\tuint8 numOfBetBit;            // 플레이어가 선택한 면의 개수\n\t\tuint placeBlockNumber;        // 플레이어가 베팅한 거래정보가 담긴 블록번호\n\t\t// 0000 0010 = 앞면 = 2           \n\t\t// 0000 0001 = 뒷면 = 1           \n\t\t// 0000 0011 = 앞 + 뒷 (불가능)     \n\t\tuint8 mask;                   // 베팅한 동전 면\n\t\taddress gambler;               // 플레이어의 계정주소\n\t}\n\t\n\tmapping (address => Bet) bets;  // 베팅 정보를 담는 장부\n\t\n\tevent Reveal(uint reveal);                                     // 던진 동전의 결과 이벤트 (1 or 2)\n\tevent Payment(address indexed beneficiary, uint amount);        // 상금 전송 이벤트 \n\tevent FailedPayment(address indexed beneficiary, uint amount);  // 상금 전송 실패 이벤트\n\t\n\t// 생성자, owner를 컨트랙트 배포 주소로 저장\n\tconstructor() public {\n\t\towner = msg.sender;\n\t}\n\t\n\t// 제어자, owner만 해당 함수를 실행 할 수 있도록 해줌\n\tmodifier onlyOwner {\n\t\trequire(msg.sender == owner, \"Only owner can call this function\");\n\t\t_;\n\t}\n\t\n\t// 컨트랙트에서 이더를 인출하는 메서드, owner만 호출 가능\n\tfunction withdrawFunds(address beneficiary, uint withdrawAmount) external onlyOwner {\n\t\t// address(this).balance 는 컨트랙트가 가진 잔액\n\t\trequire(withdrawAmount + lockedInBets <= address(this).balance, \"Large than balance\"); \n\t\tsendFunds(beneficiary, withdrawAmount);\n\t}\n\t\n\t// 이더 전송 메서드, 플레이어에게 상금 전송 또는 이더 인출 역할\n\tfunction sendFunds(address beneficiary, uint amount) private {\n\t\t// send 함수는 이더를 보내는 메서드로 전송이 성공하면 1, 실패하면 0을 리턴\n\t\tif (beneficiary.send(amount)) {\n\t\t\temit Payment(beneficiary, amount);\n\t\t} else {\n\t\t\temit FailedPayment(beneficiary, amount);\n\t\t}\n\t}\t\n\t\n\t\n\t// 컨트랙트 종료 메서드\n\tfunction kill() external onlyOwner {\n\t\t// lockedInBets가 0이면 진행중인 게임이 없다는 뜻\n\t\trequire(lockedInBets == 0, \"All bets should be processed before self-destruct.\");\n\t\tselfdestruct(owner);\n\t}\t\n\t\n\t// fallback 함수 : 이름없는 함수, 파라미터, 리턴 값을 가질 수 없음. 컨트랙트에 하나만 존재 가능\n\tfunction () public payable {}  // 이 컨트랙트 주소에 이더를 송금하면 해당 함수가 실행되면서 컨트랙트에 이더가 송금됨 (초기 운영 자금)\n\t\n\t// 프론트에서 베팅을 했을 때 베팅 정보를 장부에 기록하는 메서드, payable 이 선언되어 있기 때문에 메서드를 실행할 때 이더를 같이 받을 수 있음\n\tfunction placeBet(uint8 betMask) external payable {\n\t\tuint amount = msg.value;  // 메소드 호출자가 보낸 송금액\n\t\t\n\t\t// 사용자가 베팅한 금액 조건 확인\n\t\trequire(amount >= MIN_BET && amount <= MAX_BET, \"Amount is out of range.\");\n\t\t// 베팅한 동전 면의 값 조건 확인\n\t\trequire(betMask > 0 && betMask < 256, \"Mask should be 8 bit\");\n\t\t\n\t\t// storage는 함수 내부에 선언된 로컬 변수가 레퍼런스 타입의 상태변수를 참조할 때 사용하는 키워드, 상태변수를 가르키는 포인터\n\t\t// storage를 안써도 되지만 명시해주지 않으면 컴파일 시 경고 발생\n\t\tBet storage bet = bets[msg.sender];\n\t\t\n\t\t// 베팅 유저의 주소가 null인지 확인 (address(0) 는 주소 null을 뜻함)\n\t\trequire(bet.gambler == address(0), \"Bet should be empty state\");\n\t\t\n\t\t// 베팅한 동전 면 계산\n\t\tuint8 numOfBetBit = countBits(betMask);\n\t\t\n\t\t// bet 구조체에 값을 채워넣기\n\t\tbet.amount = amount;\n\t\tbet.numOfBetBit = numOfBetBit;\n\t\tbet.placeBlockNumber = block.number;\n\t\tbet.mask = betMask;\n\t\tbet.gambler = msg.sender;\n\t\t\n\t\t// 유저가 동전을 맞췄을 때 보상으로 가져갈 이더 계산\n\t\tuint possibleWinningAmount = getWinningAmount(amount, numOfBetBit);\n\t\t// 맞췄을 때 보상으로 가져갈 이더를 lockedInBets에 더해서 해당 이더들을 잠금\n\t\tlockedInBets += possibleWinningAmount;\n\t\t\n\t\t// 현재 컨트랙트에 있는 이더보다 lockedInBets 가 더 크면 상금을 모두 줄 수 없는 경우를 확인 \n\t\trequire(lockedInBets < address(this).balance, \"Cannot affortd to pay the bet.\");\n\t}\n\t\n\t// 베팅한 금액에 대한 상금을 계산하는 메서드, pure는 계정의 상태 정보를 읽거나 쓰지 않을 때 사용(쓰지 않으면 컴파일때 경고 발생)\n\tfunction getWinningAmount(uint amount, uint8 numOfBetBit) private pure returns (uint winningAmount) {\n\t\t// 베팅한 동전 면의 값이 1 또는 2인지 확인\n\t\trequire(0 < numOfBetBit && numOfBetBit < MAX_CASE, \"Probability is out of range\");\n\t\t\n\t\t// owner가 가져갈 수수료 계산\n\t\tuint houseFee = amount * HOUSE_FEE_PERCENT / 100;\n\t\t\n\t\t// 가져가는 수수료가 최소 수수료보다 작을 때는 지정해놓은 최소 수수료로 가져감\n\t\tif(houseFee < HOUSE_MIN_FEE) {\n\t\t\thouseFee = HOUSE_MIN_FEE;\n\t\t}\n\t\t\n\t\t// 베팅 보상 계산\n\t\t// 뒷면으로 맞춘 보상금이 더 큼\n\t\tuint reward = amount / (MAX_CASE + (numOfBetBit-1));\n\t\twinningAmount = (amount - houseFee) + reward;  // 최종 지급 상금\n\t}\n\t\n\t// 동전 던지기 메서드\n\tfunction revealResult(uint8 seed) external {\n\t\t// 유저의 베팅 정보 가져오기\n\t\tBet storage bet = bets[msg.sender];\n\t\tuint amount = bet.amount;\n\t\tuint8 numOfBetBit = bet.numOfBetBit;\n\t\tuint placeBlockNumber = bet.placeBlockNumber;\n\t\taddress gambler = bet.gambler;\n\t\t\n\t\t// 베팅 금액이 0보다 커야함\n\t\trequire(amount > 0, \"Bet should be in an 'active' state\");\t\n\t\t\n\t\t// 베팅은 동전 던지기보다 먼저 발생 되어있어야 함\n\t\t// block.number는 현재 블록 번호, placeBlockNumber는 유저의 베팅 정보가 담긴 블록 번호\n\t\t// 따라서 placeBlockNumber의 값이 더 작아야지 먼저 생성된 블록임\n\t\trequire(block.number > placeBlockNumber, \"revealResult in the same block as placeBet, or before.\");\n\t\t\n\t\t// 난수 생성\n\t\tbytes32 random = keccak256(abi.encodePacked(blockhash(block.number-seed), blockhash(placeBlockNumber)));\n\t\t\n\t\tuint reveal = uint(random) % MAX_CASE; // 동전 던지기 결과, 0(뒤) or 1(앞) \n\t\t\n\t\tuint winningAmount = 0;\n\t\tuint possibleWinningAmount = 0;\n\t\t// 보상금 계산\n\t\tpossibleWinningAmount = getWinningAmount(amount, numOfBetBit);\n\t\t\n\t\t// 동전 면 맞추기를 성공했을 때\n\t\tif((2 ** reveal) & bet.mask != 0) {\n\t\t\twinningAmount = possibleWinningAmount;\n\t\t}\n\t\t\n\t\t// 동전 결과에 대한 이벤트 발생\n\t\temit Reveal(2 ** reveal);\t\n\t\t\n\t\t// 정답을 맞춘 유저에게 최종 보상금 전송\n\t\tif(winningAmount > 0) {\n\t\t\tsendFunds(gambler, winningAmount);\n\t\t}\n\t\t\n\t\t// 모든 보상금이 다 나갔으므로 잠겨있는 이더 빼주기\n\t\tlockedInBets -= possibleWinningAmount;\n\t\t// 해당 베팅 정보를 bets 테이블에서 제거\n\t\tclearBet(msg.sender);\n\t}\n\t\n\t// 해당 플레이어의 값을 모두 null로 초기화\n\tfunction clearBet(address player) private {\n\t\tBet storage bet = bets[player];\n\t\t\n\t\tif(bet.amount > 0) {\n\t\t\treturn;\n\t\t}\n\t\t\n\t\tbet.amount = 0;\n\t\tbet.numOfBetBit = 0;\n\t\tbet.placeBlockNumber = 0;\n\t\tbet.mask = 0;\n\t\tbet.gambler = address(0);\n\t}\n\t\n\t// 베팅 후 결과를 확인하지 않고 베팅 취소\n\tfunction refundBet() external {\n\t\trequire(block.number > bet.placeBlockNumber, \"refundBet in the same block as placeBet, or before\");\n\t\t\n\t\tBet storage bet = bets[msg.sender];\n\t\tuint amount = bet.amount;\n\t\t\n\t\trequire(amount < 0, \"Bet should be in an 'active' state\");\n\t\t\n\t\tuint8 numOfBetBit = bet.numOfBetBit;\n\t\t\n\t\tsendFunds(bet.gambler, amount);\n\t\t\n\t\tuint possibleWinningAmount;\n\t\tpossibleWinningAmount = getWinningAmount(amount, numOfBetBit);\n\t\t\n\t\tlockedInBets -= possibleWinningAmount;\n\t\tclearBet(msg.sender);\n\t}\n\t\n\t// 컨트랙트 잔액을 조회하는 메서드\n\tfunction checkHouseFund() public view onlyOwner returns(uint) {\n\t\treturn address(this).balance;\n\t}\n\t\n\t// numOfBetBit 계산 메서드\n\tfunction countBits(uint8 _num) internal pure returns(uint8) {\n\t\tuint8 count;\n\t\twhile (_num > 0) {\n\t\t\tcount += _num & 1;\n\t\t\t_num >>= 1;\n\t\t}\n\t\treturn count;\n\t}\n}\n",
  "sourcePath": "/workspace/dApp_study/react-dapp/contracts/CoinToFlip.sol",
  "compiler": {
    "name": "solc",
    "version": "0.4.25+commit.59dbf8f1.Emscripten.clang"
  },
  "schemaVersion": "2.0.2",
  "updatedAt": "2021-06-22T14:27:23.298Z"
}